:020000040000FA
:0400000066EF72F045
:10DE8A00545558100024086E08507CEC6FF01200AC
:10DE9A00500001000A50C0A8016428EC70F001C0CB
:10DEAA0003F002C004F0120007C001F008C002F03B
:10DEBA0022EC73F0120016C00FF017C010F085ECB8
:10DECA0078F0120021C01DF022C01EF0F0EC74F0B0
:10DEDA00120021C01DF022C01EF0F9EC76F01200EB
:10DEEA000FC00BF010C00CF0B9EC7AF01200076EFC
:10DEFA000750070B056E750ECEEC6FF012000D6E13
:10DF0A000BC007F00CC008F00D50E2EC70F01200E4
:10DF1A00056E055077EC70F005C001F0000E08ECB4
:10DF2A0071F01200016EACA29DEF6FF09FEF6FF0DF
:10DF3A0098EF6FF001C0ADFF12000AC001F00BC0EC
:10DF4A0002F00CC003F00DC004F098EC74F012005B
:10DF5A000AC001F00BC002F00CC003F00DC004F0BF
:10DF6A00B4EC75F0120022C01DF023C01EF024C0CC
:10DF7A001FF025C020F02AEC72F012001CC016F027
:10DF8A001DC017F01EC018F01FC019F04FEC75F035
:10DF9A001200066E065077EC70F006C001F005C05C
:10DFAA0002F0400E3EEC70F0120007C001F008C00B
:10DFBA0002F009C003F00AC004F00BC005F0F1EC4E
:10DFCA0071F01200076E07C081FF8C90838200F007
:10DFDA008392000E026E030E016E97EC70F012002F
:10DFEA0013C007F014C008F015C009F016C00AF0F3
:10DFFA001CEC79F007C013F008C014F012006C0E84
:10E00A00216E000E226E6EEC6FF06C0E1C6E000E0E
:10E01A001D6E49C01EF04AC01FF0C3EC6FF012001B
:10E02A0009C001F00AC002F00BC003F00CC004F0F2
:10E03A000DC005F00EC006F05DEC71F001C009F0EC
:10E04A0002C00AF0120043504410D8B42FEF70F007
:10E05A0031EF70F039EF70F0220E4524016E000E98
:10E06A004620026E3DEF70F0000E026E000E016E49
:10E07A001200036E829201501F0B0310C96E9EA6F6
:10E08A0049EF70F04BEF70F044EF70F09E9602C0CB
:10E09A00C9FF9EA653EF70F055EF70F04EEF70F087
:10E0AA009E968282120031C033F032C034F02FC003
:10E0BA0035F030C036F033C0D9FF34C0DAFF334A06
:10E0CA00342A35C0E1FF36C0E2FF354A362ADFCFAF
:10E0DA00E7FFE750D8A474EF70F076EF70F060EFC6
:10E0EA0070F01200046E0450600B4B18D8B480EF25
:10E0FA0070F082EF70F096EF70F01F0E016E030E53
:10E10A00026EA00E3EEC70F01F0E016E0438E8425B
:10E11A00070B030B026E800E3EEC70F00450600B8E
:10E12A004B6E1200000E046E000E036EB0EF70F01C
:10E13A00000E066E000E056E054A062A065009E113
:10E14A00510E055CD8A0ACEF70F0AEEF70F0A1EF05
:10E15A0070F0034A042A0350015C04500258D8B0F4
:10E16A00B9EF70F0BBEF70F09DEF70F01200000E87
:10E17A00026EC80E016E97EC70F0000E956E000EDE
:10E18A00936E010EE7EC6FF0000E026E640E016EE4
:10E19A0097EC70F00C0EE7EC6FF0000E026E640E56
:10E1AA00016E97EC70F0060EE7EC6FF0000E026E4F
:10E1BA00640E016E97EC70F012000A6E0AC005F048
:10E1CA00D40ECEEC6FF007C005F0D60ECEEC6FF091
:10E1DA000850056ED70ECEEC6FF0FCEF70F09C0E77
:10E1EA00096ED70EE82EFED7092EFCD700F0EA0EEC
:10E1FA008DEC6FF0096E09B005EF71F007EF71F061
:10E20A00F4EF70F01200026E829201501F0B02109E
:10E21A00C96E9EA613EF71F015EF71F00EEF71F053
:10E22A009E96C9689EA61CEF71F01EEF71F017EF5B
:10E23A0071F09E9601AE24EF71F026EF71F02FEF88
:10E24A0071F0C9689EA62CEF71F02EEF71F027EFDE
:10E25A0071F09E968282C950120082927A0EC96E1D
:10E26A009EA63AEF71F03CEF71F035EF71F09E9691
:10E27A0052EF71F00106D8A0020603C0D9FF04C00C
:10E28A00DAFFDF50C96E034A042A9EA64FEF71F0E7
:10E29A0051EF71F04AEF71F09E9601500210D8A426
:10E2AA0059EF71F05BEF71F03FEF71F0828212006B
:10E2BA0076EF71F005C0F6FF06C0F7FF03500124A0
:10E2CA00076E04500220086E360E0724D96E000E1F
:10E2DA000820DA6E0800F5CFDFFF034A042A054A50
:10E2EA00062A05C0F6FF06C0F7FF0800F550000928
:10E2FA00D8A482EF71F084EF71F05FEF71F003C080
:10E30A0001F004C002F0120082923A0EC96E9EA673
:10E31A0091EF71F093EF71F08CEF71F09E96AAEF86
:10E32A0071F00106D8A00206C9689EA69FEF71F097
:10E33A00A1EF71F09AEF71F09E9603C0D9FF04C065
:10E34A00DAFFC9CFDFFF034A042A01500210D8A41A
:10E35A00B1EF71F0B3EF71F096EF71F003C0D9FF2E
:10E36A0004C0DAFF000EDF6E82821200000E056E14
:10E37A00E8EF71F005500124036E000E0220046ECE
:10E38A00060E0324D96E000E0420DA6E055001240D
:10E39A00E16E000E0220E26EDFCFE7FF600E052479
:10E3AA00D96EDA6A000EDA2205500124036E000ED5
:10E3BA000220046E060E0324E16E000E0420E26EB3
:10E3CA00DFCFE7FF052A050E0564EEEF71F0F0EFE7
:10E3DA0071F0BFEF71F01200000E066E05C051F029
:10E3EA0006EF72F006500324D96E000E0420DA6E8E
:10E3FA00390E0624E16EE26A000EE222DFCFE7FF61
:10E40A00062A030E06640CEF72F00EEF72F0F7EFB5
:10E41A0071F0000E066E21EF72F006500124D96EDB
:10E42A00000E0220DA6E600E0624E16EE26A000E29
:10E43A00E222DFCFE7FF062A050E066427EF72F015
:10E44A0029EF72F012EF72F012001DC001F01EC027
:10E45A0002F0BBEC71F01DC016F01EC017F0E0EC24
:10E46A0072F020EE22F01D50D9261E50DA22000E3C
:10E47A00DF6E20EE24F01D50D9261E50DA22F70E48
:10E48A00DF644AEF72F04CEF72F053EF72F020EE55
:10E49A0025F01D50D9261E50DA22DF2A20EE24F05C
:10E4AA001D50D9261E50DA22080EDF261FC007F09B
:10E4BA0020C008F01DC009F01EC00AF0F8EC73F085
:10E4CA0012008A0EF66EDE0EF76E000EF86E00EE81
:10E4DA0066F010EE06F00900F5CFEEFFE550E150C8
:10E4EA00FAE19A0EF66EDE0EF76E000EF86E00EE88
:10E4FA004CF010EE0AF00900F5CFEEFFE550E150BE
:10E50A00FAE100EE6CF01BEE56F0EE6AE550E150CF
:10E51A00FCE1E250FAE10001656B646B636B626BCC
:10E52A00616B606B00EE39F0130EEE6AE806FDE1EE
:10E53A00000EF86E0001F7EF77F0000E066EC0EFDE
:10E54A0072F006500224046E000E0320056E04C009
:10E55A00F6FF05C0F7FF000EF86E0F0EF76403D042
:10E56A000800F55005D0F6CFE9FFF7CFEAFFEF50E4
:10E57A0097EC6FF0062A06500224046E000E032060
:10E58A00056E04C0F6FF05C0F7FF000EF86E0F0E09
:10E59A00F76403D00800F55005D0F6CFE9FFF7CFAE
:10E5AA00EAFFEF500009D8A4DDEF72F0DFEF72F056
:10E5BA00A6EF72F01200000E1C6E13EF73F01C50DF
:10E5CA001624186E000E1720196E1A0E1824D96E0A
:10E5DA00000E1920DA6E1C5016241A6E000E17202F
:10E5EA001B6E1E0E1A24E16E000E1B20E26EDFCF98
:10E5FA00E7FF390E1C24D96EDA6A000EDA221C50A3
:10E60A001624186E000E1720196E1A0E1824E16EC1
:10E61A00000E1920E26EDFCFE7FF1C2A030E1C64EE
:10E62A0019EF73F01BEF73F0E4EF72F016C012F0FB
:10E63A0017C013F0ADEC73F0120020EE10F0015089
:10E64A00D9260250DA22DF50036E0350056E046A9F
:10E65A0020EE11F00150D9260250DA22DF50066E60
:10E66A0006500410436E0550446EEC0E4326FF0E0E
:10E67A00442220EE2EF00150D9260250DA22DF5031
:10E68A00036E033A0F0E03160350040DF3CF45F041
:10E69A00F4CF46F04550435E4650445A44BE60EFBC
:10E6AA0073F0445006E14304D8B05EEF73F060EFB4
:10E6BA0073F064EF73F0000E446E000E436E1200A6
:10E6CA00000E066E000E056E8DEF73F005500124E4
:10E6DA00036E06500220046E03C0F6FF04C0F7FF63
:10E6EA00000EF86EA20E4924D96E000E4A20DA6E88
:10E6FA000F0EF76403D00800F55005D0F6CFE9FFF6
:10E70A00F7CFEAFFEF50DF6E054A062A494A4A2A3E
:10E71A0005500124036E06500220046E03C0F6FF62
:10E72A0004C0F7FF000EF86E0F0EF76403D008005E
:10E73A00F55005D0F6CFE9FFF7CFEAFFEF50000911
:10E74A00D8A4AAEF73F0ACEF73F06BEF73F012007A
:10E75A0020EE18F01250D9261350DA22000EDF6E7E
:10E76A0020EE19F01250D9261350DA22000EDF6E6D
:10E77A0020EE14F01250D9261350DA22400EDF6E22
:10E78A0020EE15F01250D9261350DA22000EDF6E51
:10E79A0020EE16F01250D9261350DA22400EDF6E00
:10E7AA000E0E1224016E000E1320026E000E046E6D
:10E7BA00140E036E000E056EC7EC79F001C014F05A
:10E7CA0002C015F020EE18F01250D9261350DA22A2
:10E7DA001550DF6E20EE19F01250D9261350DA22A6
:10E7EA0014C0DFFF1200FF0E056E020ECEEC6FF0B2
:10E7FA00190E056E030ECEEC6FF00704056E060EB9
:10E80A00CEEC6FF0FF0E0B6E190E0C6E07C00DF0FA
:10E81A0008C00EF00B500D260C500E220EC00DF043
:10E82A000E6A0D50056E070ECEEC6FF0000E016EEB
:10E83A00000E026E7A0E3EEC70F007C001F008C0BE
:10E84A0002F009C003F00AC004F032EC71F01F0EA6
:10E85A00016E080E026E800E3EEC70F01C0E8DECFE
:10E86A006FF00B6E0BA23CEF74F03EEF74F045EFC5
:10E87A0074F01F0E016E080E026EA00E3EEC70F0D0
:10E88A001200000E096E000E0A6E000E0B6E000ECC
:10E89A000C6E0550061007100810D8B457EF74F024
:10E8AA0059EF74F08FEF74F0010E0D6E63EF74F090
:10E8BA00D89005360636073608360D2A08AE68EFB0
:10E8CA0074F06AEF74F05DEF74F0D89009360A3686
:10E8DA000B360C360550015C065002580750035897
:10E8EA0008500458D8A07CEF74F07EEF74F087EFDC
:10E8FA0074F00550015E0650025A0750035A085038
:10E90A00045A0980D89008320732063205320D2E91
:10E91A006AEF74F009C001F00AC002F00BC003F0FC
:10E92A000CC004F01200000E096E045007E1290E13
:10E93A00035CD8B0A3EF74F0A5EF74F0A8EF74F0FD
:10E94A00000EEFEF74F020EE0CF00150D9260250C1
:10E95A00DA22080EDE18D8A4B5EF74F0B7EF74F017
:10E96A00A5EF74F020EE0DF00150D9260250DA22FC
:10E97A00060EDE18D8B4C4EF74F0C6EF74F0E6EFF2
:10E98A0074F0A5EF74F0390E0924D96EDA6A000E14
:10E99A00DA2209500124066E000E0220076E260EA6
:10E9AA000624E16E000E0720E26EDE50E618D8B4A7
:10E9BA00E1EF74F0E3EF74F0E5EF74F0A5EF74F0B3
:10E9CA00092A030E0964ECEF74F0EEEF74F0C8EF55
:10E9DA0074F0010E12001DC001F01EC002F0BBEC63
:10E9EA0071F020EE10F01D50D9261E50DA22000ECA
:10E9FA00DF6E20EE11F01D50D9261E50DA222C0EA1
:10EA0A00DF6E1DC016F01EC017F0E0EC72F020EEAB
:10EA1A002FF01D50D9261E50DA22120EDF6E1DC0AD
:10EA2A0001F01EC002F0000E046E010E036E010E0C
:10EA3A00056E000E066EAEEC7BF01A0E1D24016EFA
:10EA4A00000E1E20026E000E046E200E036E020ED1
:10EA5A00056EC7EC79F001C01FF002C020F020EE6D
:10EA6A0032F01D50D9261E50DA222050DF6E20EED9
:10EA7A0033F01D50D9261E50DA221FC0DFFF000EC8
:10EA8A00086E3A0E076E1DC009F01EC00AF0F8ECB7
:10EA9A0073F0120020EE2FF01650D9261750DA2202
:10EAAA00190EDF6E280E18241A6E000E19201B6E1E
:10EABA0020EE10F01650D9261750DA221B50DF6EBE
:10EACA0020EE11F01650D9261750DA221AC0DFFFAD
:10EADA0016C012F017C013F0ADEC73F020EE32F04E
:10EAEA001650D9261750DA22000EDF6E20EE33F0C8
:10EAFA001650D9261750DA22000EDF6E1A0E162487
:10EB0A00016E000E1720026E1C0E1824036E000EF2
:10EB1A001920046E020E056EC7EC79F001C01AF0D6
:10EB2A0002C01BF020EE32F01650D9261750DA2216
:10EB3A001B50DF6E20EE33F01650D9261750DA221A
:10EB4A001AC0DFFF360E1824076E000E1920086E51
:10EB5A0016C009F017C00AF0F8EC73F01200000EA4
:10EB6A00096E045007E12A0E035CD8B0BFEF75F0B6
:10EB7A00C1EF75F0C4EF75F0000E1BEF76F020EED2
:10EB8A000CF00150D9260250DA22080EDE18D8A459
:10EB9A00D1EF75F0D3EF75F0C1EF75F020EE0DF0FF
:10EBAA000150D9260250DA22DF50D8B4DFEF75F0CF
:10EBBA00E1EF75F0E3EF75F0C1EF75F020EE0EF0BE
:10EBCA000150D9260250DA22450EDE18D8B4F0EFE9
:10EBDA0075F0F2EF75F012EF76F0C1EF75F0390EBD
:10EBEA000924D96EDA6A000EDA2209500124066E67
:10EBFA00000E0220076E1E0E0624E16E000E07208C
:10EC0A00E26EDE50E618D8B40DEF76F00FEF76F02C
:10EC1A0011EF76F0C1EF75F0092A030E096418EFB7
:10EC2A0076F01AEF76F0F4EF75F0010E120001C0DB
:10EC3A0009F002C00AF003C00BF004C00CF005068C
:10EC4A00D8A00606052806E10628D8A42FEF76F0F4
:10EC5A0031EF76F03EEF76F0000E026E000E016E96
:10EC6A0086EF76F0094A0A2A0B4A0C2A0506D8A02A
:10EC7A00060609C0F6FF0AC0F7FF0800F5500009AA
:10EC8A00D8B44AEF76F04CEF76F073EF76F00BC01B
:10EC9A00D9FF0CC0DAFFDF50D8B456EF76F058EF40
:10ECAA0076F073EF76F005500610D8B45FEF76F081
:10ECBA0061EF76F073EF76F00BC0D9FF0CC0DAFF84
:10ECCA0009C0F6FF0AC0F7FFDE500900F518D8B4EC
:10ECDA0071EF76F073EF76F037EF76F009C0F6FF52
:10ECEA000AC0F7FF0800F5CF07F00BC0D9FF0CC028
:10ECFA00DAFFDF50086E0850075C016E026AD8A07E
:10ED0A0002061200000E016E480E026EE80E036E35
:10ED1A00010E046E0EC012F00FC013F010C014F0F2
:10ED2A0011C015F0040ED890123613361436153663
:10ED3A00E82E98EF76F012C005F013C006F014C062
:10ED4A0007F015C008F046EC74F0FF0E0124166EA9
:10ED5A00FF0E0220176E1704D8A0B6EF76F0B8EFB0
:10ED6A0076F0F2EF76F0000E016E480E026EE80EB3
:10ED7A00036E010E046E0EC012F00FC013F010C025
:10ED8A0014F011C015F0060ED89012361336143648
:10ED9A001536E82EC9EF76F012C005F013C006F05A
:10EDAA0014C007F015C008F046EC74F0FF0E0124F9
:10EDBA00166EFF0E0220176E1704D8A0E7EF76F042
:10EDCA00E9EF76F0ECEF76F0000E176E166816C0D3
:10EDDA00AFFF200EAC6EF6EF76F016C0AFFF240E32
:10EDEA00AC6E900EAB6E12001DC001F01EC002F098
:10EDFA00BBEC71F020EE2FF01D50D9261E50DA22FE
:10EE0A00100EDF6E43504410D8A40EEF77F010EFC7
:10EE1A0077F020EF77F01DC001F01EC002F0000E5F
:10EE2A00046E010E036E000E056E010E066EAEEC48
:10EE3A007BF02EEF77F01DC001F01EC002F043C038
:10EE4A0003F044C004F0000E056E010E066EAEEC2F
:10EE5A007BF020EE10F01D50D9261E50DA22000E4B
:10EE6A00DF6E20EE11F01D50D9261E50DA22280E30
:10EE7A00DF6E1DC016F01EC017F0E0EC72F01A0E1D
:10EE8A001D24016E000E1E20026E000E046E1C0E62
:10EE9A00036E020E056EC7EC79F001C01FF002C0C6
:10EEAA0020F020EE32F01D50D9261E50DA222050D2
:10EEBA00DF6E20EE33F01D50D9261E50DA221FC015
:10EECA00DFFF000E086E360E076E1DC009F01EC069
:10EEDA000AF0F8EC73F0120015C056F016C057F09D
:10EEEA0011C00FF012C010F075EC6FF0020E48EC72
:10EEFA006FF0680E176EE40EE82EFED7172EFCD7B9
:10EF0A0000F000F0080E0C6E800E0B6E140E84ECEE
:10EF1A006FF0150E186E4B0E176EBE0EE82EFED74A
:10EF2A00172EFCD7182EFAD700F000F0090E0C6E37
:10EF3A00900E0B6E140E84EC6FF0150E186E4B0EBD
:10EF4A00176EBE0EE82EFED7172EFCD7182EFAD74C
:10EF5A0000F000F0080E0C6E800E0B6E140E84EC9E
:10EF6A006FF0150E186E4B0E176EBE0EE82EFED7FA
:10EF7A00172EFCD7182EFAD700F000F0090E0C6EE7
:10EF8A00900E0B6E140E84EC6FF0150E186E4B0E6D
:10EF9A00176EBE0EE82EFED7172EFCD7182EFAD7FC
:10EFAA0000F000F0040E0C6E760E0B6E140E84EC5C
:10EFBA006FF0050E186E0F0E176EF10EE82EFED7C3
:10EFCA00172EFCD7182EFAD700F011C007F012C07E
:10EFDA0008F013C009F014C00AF056C00BF0DAECBE
:10EFEA006FF01200660E116E000E126E520E136E44
:10EFFA00000E146E000E166E500E156E71EC77F040
:10F00A00BCEC70F0000E926E800E0E6E250E0F6E26
:10F01A00000E106E000E116E87EC76F0520E386EEE
:10F02A002B0E376E000EE82EFED7372EFCD7382E61
:10F03A00FAD700F000F0DE0E026EFF0E036EA2ECAD
:10F04A0072F0290E386E960E376E7F0EE82EFED7B6
:10F05A00372EFCD7382EFAD700F06C0E026EFF0E50
:10F06A00036EA2EC72F0290E386E960E376E7F0E82
:10F07A00E82EFED7372EFCD7382EFAD700F0DB0E53
:10F08A00026EFF0E036EA2EC72F0C6EC7CF0265004
:10F09A002710D8B453EF78F055EF78F04AEF78F0AC
:10F0AA00CE0E2F6E090E306EC6EC7CF026C031F003
:10F0BA0027C032F058EC70F0B40E016EFC0E026EEE
:10F0CA0065EC73F004EC70F0CE0E026E090E036E5E
:10F0DA00A2EC72F0010E026EF40E016E97EC70F063
:10F0EA00DB0E026EFF0E036EA2EC72F0010E026ED0
:10F0FA00F40E016E97EC70F04AEF78F000EF00F032
:10F10A00000E156E0FC001F010C002F0BBEC71F0DA
:10F11A0020EE14F00F50D9261050DA22000EDF6EBE
:10F12A0020EE15F00F50D9261050DA22020EDF6EAB
:10F13A00CEEF78F015500F24116E000E1020126ECB
:10F14A00160E1124D96E000E1220DA6E15500F24F5
:10F15A00136E000E1020146E200E1324E16E000EA2
:10F16A001420E26EDFCFE7FF600E1524D96EDA6A4B
:10F17A00000EDA2215500F24116E000E1020126EA6
:10F18A00160E1124E16E000E1220E26EDFCFE7FFA9
:10F19A00152A050E1564D4EF78F0D6EF78F09FEFB4
:10F1AA0078F0000E156E09EF79F015500F24116EE4
:10F1BA00000E1020126E1C0E1124D96E000E1220A1
:10F1CA00DA6E15500F24136E000E1020146E260EE0
:10F1DA001324E16E000E1420E26EDFCFE7FF390E32
:10F1EA001524D96EDA6A000EDA2215500F24116E30
:10F1FA00000E1020126E1C0E1124E16E000E122059
:10F20A00E26EDFCFE7FF152A030E15640FEF79F0E0
:10F21A0011EF79F0DAEF78F0000E086E2A0E076E19
:10F22A000FC009F010C00AF0F8EC73F01200390EA2
:10F23A008DEC6FF00009D8A425EF79F027EF79F06B
:10F24A002DEF79F0000E086E000E076EC6EF79F00A
:10F25A0047C005F0000ECEEC6FF04850056E010E67
:10F26A00CEEC6FF0000E016E3A0E08EC71F00B6EE8
:10F27A000B50476E486A000E016E3A0E08EC71F0A8
:10F28A000B6E0B500D6E0C6A0C5047120D50481243
:10F29A00000E016E3A0E08EC71F00B6E0B50116EF7
:10F2AA00126A000E016E3A0E08EC71F00B6E0B50EA
:10F2BA000D6E0C6A0C5011120D501212040E115ED2
:10F2CA00000E125A000E016E3A0E08EC71F00B6E27
:10F2DA000B500F6E106A000E016E3A0E08EC71F0B8
:10F2EA000B6E0B500D6E0C6A0C500F120D50101253
:10F2FA00FF0E0B6EFF0E0C6E07C00DF008C00EF06D
:10F30A000B500D260C500E2211500D5C12500E5847
:10F31A00D8B092EF79F094EF79F09AEF79F0FF0E86
:10F32A000724116EFF0E0820126E0FBE9FEF79F0B0
:10F33A00A1EF79F0A7EF79F0000E126E000E116EB0
:10F34A00B1EF79F011C001F012C002F009C003F068
:10F35A000AC004F089EC71F047C005F00C0ECEEC3F
:10F36A006FF04850056E0D0ECEEC6FF01E0E016E5A
:10F37A00400E026E800E3EEC70F011C007F012C013
:10F38A0008F01200000E0E6E000E0F6E000E106EC8
:10F39A00000E116E0504D8A4D5EF79F0D7EF79F0F5
:10F3AA00F1EF79F0110E0E26000E0F221022112213
:10F3BA00F80E066EFF0E076E03C008F004C009F0CF
:10F3CA00065008260750092208500E2609500F2217
:10F3DA00000E1022000E1122020E0518D8A4F8EF12
:10F3EA0079F0FAEF79F03BEF7AF0060E0E26000E6E
:10F3FA000F2210221122F80E066EFF0E076E03C0AE
:10F40A0008F004C009F006500826075009220850DF
:10F41A000E2609500F22000E1022000E11223BEF79
:10F42A007AF001C0D9FF02C0DAFFDF50066E06503B
:10F43A00086E076A20EE01F00150D9260250DA223E
:10F44A00DF50096E09500712000E081207500E26E7
:10F45A0008500F22000E1022000E1122020E012661
:10F46A00000E0222020E035E000E045A045007E147
:10F47A00020E035CD8B044EF7AF046EF7AF016EF4A
:10F48A007AF003500410D8B44DEF7AF04FEF7AF0C7
:10F49A0096EF7AF001C0D9FF02C0DAFFDF50066E9C
:10F4AA000650086E076A07C009F008C00AF0000E85
:10F4BA000ABEFF0E0B6E0C6E09500E260A500F2262
:10F4CA000B5010220C50112296EF7AF00EC006F063
:10F4DA000FC007F010C008F011C009F0110E7BEF41
:10F4EA007AF0D8900932083207320632E82E76EFDF
:10F4FA007AF0FF0E0E140A6EFF0E0F140B6E000E3A
:10F50A0010140C6E000E11140D6E06500A240E6EA5
:10F51A0007500B200F6E08500C20106E09500D205A
:10F52A00116E0EC006F00FC007F010C008F011C02F
:10F53A0009F0110EA6EF7AF0D89009320832073294
:10F54A000632E82EA1EF7AF00650071008100910CB
:10F55A00D8A4B2EF7AF0B4EF7AF06BEF7AF00E1C1F
:10F56A00016E0F1C026E1200948894969492949ADB
:10F57A00829282988296400EC76E200EC66E9E9622
:10F58A00000EC26E0F0EC16E000E016EFF0E026EED
:10F59A00FF0E3EEC70F0030E0E6E080E0D6E770E27
:10F5AA00E82EFED70D2EFCD70E2EFAD700F0000E4D
:10F5BA00486E000E476E000E056E080ECEEC6FF018
:10F5CA00000E056E090ECEEC6FF0000E056E0C0EE5
:10F5DA00CEEC6FF0000E056E0D0ECEEC6FF0FE0E47
:10F5EA00056E0A0ECEEC6FF0190E056E0B0ECEEC00
:10F5FA006FF0FF0E056E040ECEEC6FF0190E056E5D
:10F60A00050ECEEC6FF0FF0E056E060ECEEC6FF017
:10F61A001F0E056E070ECEEC6FF0B00E056E380E9B
:10F62A00CEEC6FF03F0E056E280ECEEC6FF0300E6A
:10F63A00056E290ECEEC6FF0F90E056E300ECEEC8B
:10F64A006FF0F70E056E310ECEEC6FF00D0E056EF3
:10F65A00C00ECEEC6FF0000E056EC10ECEEC6FF050
:10F66A00C20E016E320E026E800E3EEC70F0120E69
:10F67A00056EC60ECEEC6FF00C0E056EC70ECEEC04
:10F68A006FF0120E056EC40ECEEC6FF0DC0E056E36
:10F69A00CA0ECEEC6FF0050E056ECB0ECEEC6FF0F7
:10F6AA000BC0D9FF0CC0DAFFDF50056EE40ECEECBA
:10F6BA006FF020EE01F00B50D9260C50DA22DF5001
:10F6CA00056EE50ECEEC6FF020EE02F00B50D92657
:10F6DA000C50DA22DF50056EE20ECEEC6FF020EE0F
:10F6EA0003F00B50D9260C50DA22DF50056EE30ED8
:10F6FA00CEEC6FF020EE04F00B50D9260C50DA2233
:10F70A00DF50056EE00ECEEC6FF020EE05F00B50E8
:10F71A00D9260C50DA22DF50056EE10ECEEC6FF0DE
:10F72A00010E086E000E076E100EE2EC70F01F0E4E
:10F73A0077EC70F01B0E016EC00E026E800E3EEC6E
:10F74A0070F01F0E016E040E026E800E3EEC70F019
:10F75A001200000E0C6EDBEF7BF00C500124076EDA
:10F76A00000E0220086E220E0724D96E000E082011
:10F77A00DA6E0C500124096E000E02200A6E240E65
:10F78A000924E16E000E0A20E26EDFCFE7FF0C507B
:10F79A000124076E000E0220086E220E0724D96E7D
:10F7AA00000E0820DA6E000EDF6E0C2A010E0C64C1
:10F7BA00E1EF7BF0E3EF7BF0B2EF7BF020EE23F09A
:10F7CA000150D9260250DA2251C0DFFF040E0C6E16
:10F7DA0049EF7CF00C500124076E000E0220086EDF
:10F7EA00250E0724D96E000E0820DA6EDF50096E46
:10F7FA0009500324036E000E0420046E0C500124E9
:10F80A00076E000E0220086E290E0724D96E000E1C
:10F81A000820DA6EDF500B6E0C500124076E000EC2
:10F82A000220086E290E0724D96E000E0820DA6E0F
:10F83A0003C0DFFF0650D8B425EF7CF027EF7CF039
:10F84A0037EF7CF00C500124076E000E0220086E80
:10F85A00250E0724D96E000E0820DA6E0BC0DFFFD2
:10F86A0045EF7CF00C500124076E000E0220086E52
:10F87A00250E0724D96E000E0820DA6E000EDF6E00
:10F88A000450036E046A0C060C50D8A44FEF7CF0A7
:10F89A0051EF7CF0EFEF7BF00650D8A457EF7CF0E5
:10F8AA0059EF7CF07BEF7CF020EE26F00150D92650
:10F8BA000250DA22000EDF6E20EE27F00150D92620
:10F8CA000250DA22000EDF6E20EE28F00150D9260F
:10F8DA000250DA2250C0DFFF20EE29F00150D9266B
:10F8EA000250DA22000EDF6E020E502620EE32F0AF
:10F8FA000150D9260250DA22000EDF6E20EE33F0D4
:10F90A000150D9260250DA22000EDF6E0550D8B413
:10F91A0091EF7CF093EF7CF0BDEF7CF020EE36F0B7
:10F92A000150D9260250DA22020EDF6E20EE37F09D
:10F93A000150D9260250DA22040EDF6E20EE38F08A
:10F94A000150D9260250DA22050EDF6E20EE39F078
:10F95A000150D9260250DA22800EDF6E20EE2EF0F8
:10F96A000150D9260250DA22600EDF6EC5EF7CF014
:10F97A0020EE2EF00150D9260250DA22500EDF6E08
:10F98A001200070E146E6C0E136E6C0E156E000EBE
:10F99A00166EF5EC6FF013C049F014C04AF04950E6
:10F9AA004A10D8B4DBEF7CF0DDEF7CF057EF7EF045
:10F9BA006C0E0A6E000E0B6E49C00CF04AC00DF0B8
:10F9CA00A2EC6FF00009D8B4EDEF7CF0EFEF7CF019
:10F9DA00FDEF7CF06C0E166E000E176E60EC6FF089
:10F9EA00000E266E000E276E57EF7EF057EF7EF060
:10F9FA006C0E0A6E000E0B6E49C00CF04AC00DF078
:10FA0A00ADEC6FF00009D8A40DEF7DF00FEF7DF09B
:10FA1A0011EF7DF0F5EF7CF083C0E8FF010AD8A46E
:10FA2A0019EF7DF01BEF7DF031EF7DF08EC0E8FF1E
:10FA3A00080AD8A423EF7DF025EF7DF031EF7DF0A1
:10FA4A006C0E226E000E236E49C024F04AC025F0C7
:10FA5A00B8EC6FF0F5EF7CF083C0E8FF060AD8A493
:10FA6A0039EF7DF03BEF7DF057EF7EF020EE90F01E
:10FA7A00DF50D8A443EF7DF045EF7DF057EF7EF0DD
:10FA8A0020EE91F0DF50286E296A5650281807E1B7
:10FA9A0057502918D8A454EF7DF056EF7DF057EF50
:10FAAA007EF020EE9BF0DFA25DEF7DF05FEF7DF050
:10FABA0067EF7DF06C0E216E000E226E67EC6FF020
:10FACA00F5EF7CF020EE9BF0DFA86EEF7DF070EF93
:10FADA007DF057EF7EF06C0E076E000E086E59EC43
:10FAEA006FF052EC6FF003C02BF004C02CF02B50D7
:10FAFA002C10D8A483EF7DF085EF7DF096EF7DF092
:10FB0A0020EE9BF0DFA08CEF7DF08EEF7DF0F5EF1D
:10FB1A007CF06C0E216E000E226E6EEC6FF0F5EF2B
:10FB2A007CF0F80E016EFF0E026E6C0E2B24036E33
:10FB3A00000E2C20046E000E066E040E056E1CECE0
:10FB4A0076F001500210D8B4ADEF7DF0AFEF7DF042
:10FB5A00D5EF7DF06C0E096E000E0A6E000E0C6E6B
:10FB6A00000E0B6E750E0D6EFF0E0E6E15EC70F01C
:10FB7A0009C049F00AC04AF06C0E096E000E0A6EFE
:10FB8A0049C00BF04AC00CF0ED0E0D6EFF0E0E6E62
:10FB9A0015EC70F009C049F00AC04AF004EC70F0A4
:10FBAA00FD0E016EFF0E026E700E2B24036E000E08
:10FBBA002C20046E000E066E010E056E1CEC76F00B
:10FBCA0001500210D8A4ECEF7DF0EEEF7DF0FBEFD0
:10FBDA007CF0000E2E6E000E2D6E10EF7EF06C0E75
:10FBEA00286E000E296E050E2826000E29222D5099
:10FBFA0028262E5029222B502824D96E2C50292011
:10FC0A00DA6ED90E2D24E16E070E2E20E26EDFCFBA
:10FC1A00E7FF2D4A2E2A6C0E286E000E296E050E5D
:10FC2A002826000E29222D5028262E5029222B5014
:10FC3A002824D96E2C502920DA6E200EDE18D8B46A
:10FC4A0029EF7EF02BEF7EF039EF7EF02EBE37EFF4
:10FC5A007EF0F40E2D5C010E2E58D8A037EF7EF000
:10FC6A0039EF7EF0F4EF7DF0D90E2D24D96E070E10
:10FC7A002E20DA6E000EDF6E6C0E096E000E0A6E12
:10FC8A00000E0C6E000E0B6EB10E0D6EFF0E0E6E98
:10FC9A0015EC70F009C049F00AC04AF0D90E266E78
:10FCAA00070E276E1200003031323C21444F435474
:10FCBA005950452068746D6C3E203C48313E57656A
:10FCCA006C636F6D6520746F207072696E742D732A
:10FCDA006572766572213C2F48313E3C68746D6CC2
:10FCEA00206C616E673D22656E223E202020203CFA
:10FCFA00686561643E20202020202020203C6D651C
:10FD0A00746120636861727365743D227574662D2F
:10FD1A0038223E20202020202020203C7469746C48
:10FD2A00653E5072696E74207365727665722070D2
:10FD3A006167653C2F7469746C653E202020202021
:10FD4A002020203C7363726970743E20202020209A
:10FD5A0020202073747254657874203D2022223B3F
:10FD6A00202020202020202066756E6374696F6E23
:10FD7A002053656E64546578742829202020202039
:10FD8A002020207B2020202020202020202020200E
:10FD9A007661722072657175657374203D206E6597
:10FDAA007720584D4C487474705265717565737438
:10FDBA0028293B20202020202020202020202073BA
:10FDCA00747254657874203D20646F63756D656E36
:10FDDA00742E676574456C656D656E744279496405
:10FDEA0028227478745F666F726D22292E666F728C
:10FDFA006D5F746578742E76616C75653B20202082
:10FE0A0020202020202020202072657175657374BF
:10FE1A002E6F70656E2822474554222C73747254D3
:10FE2A006578742C74727565293B20202020202067
:10FE3A00202020202020726571756573742E7365E9
:10FE4A006E64286E756C6C293B20202020202020AF
:10FE5A00207D20202020202020203C2F73637269DF
:10FE6A0070743E202020203C2F686561643E20206B
:10FE7A0020203C626F6479206F6E6C6F61643D2252
:10FE8A00476574494F2829223E202020202020201F
:10FE9A00203C666F726D2069643D227478745F66D7
:10FEAA006F726D22206E616D653D2266726D5465BA
:10FEBA007874223E2020202020202020202020206C
:10FECA003C7465787461726561206E616D653D226E
:10FEDA00666F726D5F746578742220726F77733DF6
:10FEEA002231302220636F6C733D223430223E3C33
:10FEFA002F74657874617265613E2020202020206D
:10FF0A0020203C2F666F726D3E202020202020206A
:10FF1A00203C696E70757420747970653D22737522
:10FF2A00626D6974222076616C75653D2253656E37
:10FF3A0064205465787422206F6E636C69636B3D2C
:10FF4A002253656E6454657874282922202F3E2036
:10FF5A002020203C2F626F64793E3C2F68746D6CC0
:10FF6A003E0054657374206D736700485454502FD3
:10FF7A00312E3020323030204F4B0D0A436F6E74D1
:10FF8A00656E742D547970653A20746578742F689B
:10FF9A00746D6C0D0A0D0A3C68313E323030204FC8
:10FFAA004B3C2F68313E00485454502F312E30209C
:10FFBA00323030204F4B0D0A436F6E74656E742DCC
:10FFCA00547970653A20746578742F68746D6C0D75
:10FFDA000A0D0A0048656C6C6F20776F726C642199
:10FFEA000D0A003C68313E413C2F68313E004745CE
:06FFFA005420002F00005E
:020000040020DA
:08000000FFFFFFFFFFFFFFFF00
:020000040030CA
:0E000000FF071F1FFF8B85FF0FC00FE00F4093
:00000001FF
